{
  "contractName": "KittenSwapRouter",
  "abi": [
    {
      "anonymous": false,
      "inputs": [
        {
          "indexed": false,
          "internalType": "address",
          "name": "adapterAddress",
          "type": "address"
        },
        {
          "indexed": false,
          "internalType": "uint256",
          "name": "adapterIdx",
          "type": "uint256"
        }
      ],
      "name": "AdapterRegistered",
      "type": "event"
    },
    {
      "anonymous": false,
      "inputs": [
        {
          "indexed": true,
          "internalType": "address",
          "name": "previousOwner",
          "type": "address"
        },
        {
          "indexed": true,
          "internalType": "address",
          "name": "newOwner",
          "type": "address"
        }
      ],
      "name": "OwnershipTransferred",
      "type": "event"
    },
    {
      "anonymous": false,
      "inputs": [
        {
          "indexed": false,
          "internalType": "address",
          "name": "account",
          "type": "address"
        }
      ],
      "name": "Paused",
      "type": "event"
    },
    {
      "anonymous": false,
      "inputs": [
        {
          "indexed": false,
          "internalType": "address",
          "name": "account",
          "type": "address"
        }
      ],
      "name": "Unpaused",
      "type": "event"
    },
    {
      "inputs": [
        {
          "internalType": "uint256",
          "name": "",
          "type": "uint256"
        }
      ],
      "name": "_adapters",
      "outputs": [
        {
          "internalType": "address",
          "name": "",
          "type": "address"
        }
      ],
      "stateMutability": "view",
      "type": "function"
    },
    {
      "inputs": [],
      "name": "owner",
      "outputs": [
        {
          "internalType": "address",
          "name": "",
          "type": "address"
        }
      ],
      "stateMutability": "view",
      "type": "function"
    },
    {
      "inputs": [],
      "name": "paused",
      "outputs": [
        {
          "internalType": "bool",
          "name": "",
          "type": "bool"
        }
      ],
      "stateMutability": "view",
      "type": "function"
    },
    {
      "inputs": [],
      "name": "renounceOwnership",
      "outputs": [],
      "stateMutability": "nonpayable",
      "type": "function"
    },
    {
      "inputs": [
        {
          "internalType": "address",
          "name": "newOwner",
          "type": "address"
        }
      ],
      "name": "transferOwnership",
      "outputs": [],
      "stateMutability": "nonpayable",
      "type": "function"
    },
    {
      "inputs": [],
      "name": "pause",
      "outputs": [],
      "stateMutability": "nonpayable",
      "type": "function"
    },
    {
      "inputs": [],
      "name": "unpause",
      "outputs": [],
      "stateMutability": "nonpayable",
      "type": "function"
    },
    {
      "inputs": [],
      "name": "getAdapterCount",
      "outputs": [
        {
          "internalType": "uint256",
          "name": "",
          "type": "uint256"
        }
      ],
      "stateMutability": "view",
      "type": "function"
    },
    {
      "inputs": [
        {
          "internalType": "uint256",
          "name": "idx",
          "type": "uint256"
        }
      ],
      "name": "getAdapterNameByIndex",
      "outputs": [
        {
          "internalType": "string",
          "name": "name",
          "type": "string"
        }
      ],
      "stateMutability": "view",
      "type": "function"
    },
    {
      "inputs": [
        {
          "internalType": "uint256",
          "name": "idx",
          "type": "uint256"
        }
      ],
      "name": "getAdapterAddressByIndex",
      "outputs": [
        {
          "internalType": "address",
          "name": "adapterAddr",
          "type": "address"
        }
      ],
      "stateMutability": "view",
      "type": "function"
    },
    {
      "inputs": [
        {
          "internalType": "address",
          "name": "adapterAddr",
          "type": "address"
        }
      ],
      "name": "registerAdapter",
      "outputs": [],
      "stateMutability": "nonpayable",
      "type": "function"
    },
    {
      "inputs": [
        {
          "internalType": "uint256",
          "name": "adapterIdx",
          "type": "uint256"
        }
      ],
      "name": "unregisterAdapter",
      "outputs": [],
      "stateMutability": "nonpayable",
      "type": "function"
    },
    {
      "inputs": [
        {
          "internalType": "address",
          "name": "tokenIn",
          "type": "address"
        },
        {
          "internalType": "address",
          "name": "tokenOut",
          "type": "address"
        },
        {
          "internalType": "uint256",
          "name": "amountIn",
          "type": "uint256"
        }
      ],
      "name": "getBestQuote",
      "outputs": [
        {
          "internalType": "uint256",
          "name": "bestAmountOut",
          "type": "uint256"
        },
        {
          "internalType": "uint256",
          "name": "adapterIdxUsed",
          "type": "uint256"
        }
      ],
      "stateMutability": "view",
      "type": "function"
    },
    {
      "inputs": [
        {
          "internalType": "uint256",
          "name": "amountIn",
          "type": "uint256"
        },
        {
          "internalType": "uint256",
          "name": "amountOutMin",
          "type": "uint256"
        },
        {
          "internalType": "address[]",
          "name": "path",
          "type": "address[]"
        },
        {
          "internalType": "address",
          "name": "to",
          "type": "address"
        },
        {
          "internalType": "uint256",
          "name": "deadline",
          "type": "uint256"
        }
      ],
      "name": "swapExactTokensForTokens",
      "outputs": [
        {
          "internalType": "uint256[]",
          "name": "amounts",
          "type": "uint256[]"
        }
      ],
      "stateMutability": "nonpayable",
      "type": "function"
    }
  ],
  "bytecode": "0x608060405234801561001057600080fd5b5060006100216100de60201b60201c565b9050806000806101000a81548173ffffffffffffffffffffffffffffffffffffffff021916908373ffffffffffffffffffffffffffffffffffffffff1602179055508073ffffffffffffffffffffffffffffffffffffffff16600073ffffffffffffffffffffffffffffffffffffffff167f8be0079c531659141344cd1fd0a4f28419497f9722a3daafe3b4186f6b6457e060405160405180910390a35060008060146101000a81548160ff0219169083151502179055506100e6565b600033905090565b611f30806100f56000396000f3fe608060405234801561001057600080fd5b50600436106100ea5760003560e01c8063610976e01161008c5780638a12fad9116100665780638a12fad9146102245780638da5cb5b14610242578063a6e422fe14610260578063f2fde38b14610290576100ea565b8063610976e0146101e0578063715018a6146102105780638456cb591461021a576100ea565b80633f4ba83a116100c85780633f4ba83a1461016c5780635bbb8610146101765780635c975abb146101a6578063602155c9146101c4576100ea565b8063228c04b8146100ef57806322f2caf11461012057806338ed17391461013c575b600080fd5b61010960048036038101906101049190611484565b6102ac565b604051610117929190611a66565b60405180910390f35b61013a6004803603810190610135919061145b565b6103e8565b005b610156600480360381019061015191906115d0565b610512565b60405161016391906118f5565b60405180910390f35b610174610803565b005b610190600480360381019061018b919061157e565b610889565b60405161019d9190611932565b60405180910390f35b6101ae6109cd565b6040516101bb9190611917565b60405180910390f35b6101de60048036038101906101d9919061157e565b6109e3565b005b6101fa60048036038101906101f5919061157e565b610cd4565b60405161020791906118a3565b60405180910390f35b610218610d95565b005b610222610ecf565b005b61022c610f55565b6040516102399190611a14565b60405180910390f35b61024a610f62565b60405161025791906118a3565b60405180910390f35b61027a6004803603810190610275919061157e565b610f8b565b60405161028791906118a3565b60405180910390f35b6102aa60048036038101906102a5919061145b565b610fca565b005b600080600091506000905060005b6001805490508110156103df57600060018281548110610303577f4e487b7100000000000000000000000000000000000000000000000000000000600052603260045260246000fd5b9060005260206000200160009054906101000a900473ffffffffffffffffffffffffffffffffffffffff1673ffffffffffffffffffffffffffffffffffffffff1663d9abf5088689896040518463ffffffff1660e01b815260040161036a93929190611a2f565b60206040518083038186803b15801561038257600080fd5b505afa158015610396573d6000803e3d6000fd5b505050506040513d601f19601f820116820180604052508101906103ba91906115a7565b9050838111156103cb578093508192505b5080806103d790611ce1565b9150506102ba565b50935093915050565b6103f06109cd565b15610430576040517f08c379a000000000000000000000000000000000000000000000000000000000815260040161042790611994565b60405180910390fd5b610438611173565b73ffffffffffffffffffffffffffffffffffffffff16610456610f62565b73ffffffffffffffffffffffffffffffffffffffff16146104ac576040517f08c379a00000000000000000000000000000000000000000000000000000000081526004016104a3906119d4565b60405180910390fd5b6001819080600181540180825580915050600190039060005260206000200160009091909190916101000a81548173ffffffffffffffffffffffffffffffffffffffff021916908373ffffffffffffffffffffffffffffffffffffffff16021790555050565b606061051c6109cd565b1561055c576040517f08c379a000000000000000000000000000000000000000000000000000000000815260040161055390611994565b60405180910390fd5b600285859050146105a2576040517f08c379a0000000000000000000000000000000000000000000000000000000008152600401610599906119b4565b60405180910390fd5b6000858560008181106105de577f4e487b7100000000000000000000000000000000000000000000000000000000600052603260045260246000fd5b90506020020160208101906105f3919061145b565b9050600086866001818110610631577f4e487b7100000000000000000000000000000000000000000000000000000000600052603260045260246000fd5b9050602002016020810190610646919061145b565b9050600061065583838c6102ac565b915050600060018281548110610694577f4e487b7100000000000000000000000000000000000000000000000000000000600052603260045260246000fd5b9060005260206000200160009054906101000a900473ffffffffffffffffffffffffffffffffffffffff1690508373ffffffffffffffffffffffffffffffffffffffff166323b872dd33838e6040518463ffffffff1660e01b81526004016106fe939291906118be565b602060405180830381600087803b15801561071857600080fd5b505af115801561072c573d6000803e3d6000fd5b505050506040513d601f19601f820116820180604052508101906107509190611514565b61075957600080fd5b8073ffffffffffffffffffffffffffffffffffffffff166338ed17398c8c8c8c8c8c6040518763ffffffff1660e01b815260040161079c96959493929190611a8f565b600060405180830381600087803b1580156107b657600080fd5b505af11580156107ca573d6000803e3d6000fd5b505050506040513d6000823e3d601f19601f820116820180604052508101906107f391906114d3565b9450505050509695505050505050565b61080b611173565b73ffffffffffffffffffffffffffffffffffffffff16610829610f62565b73ffffffffffffffffffffffffffffffffffffffff161461087f576040517f08c379a0000000000000000000000000000000000000000000000000000000008152600401610876906119d4565b60405180910390fd5b61088761117b565b565b6060600082101580156108a0575060018054905082105b6108df576040517f08c379a00000000000000000000000000000000000000000000000000000000081526004016108d6906119f4565b60405180910390fd5b60018281548110610919577f4e487b7100000000000000000000000000000000000000000000000000000000600052603260045260246000fd5b9060005260206000200160009054906101000a900473ffffffffffffffffffffffffffffffffffffffff1673ffffffffffffffffffffffffffffffffffffffff166317d7de7c6040518163ffffffff1660e01b815260040160006040518083038186803b15801561098957600080fd5b505afa15801561099d573d6000803e3d6000fd5b505050506040513d6000823e3d601f19601f820116820180604052508101906109c6919061153d565b9050919050565b60008060149054906101000a900460ff16905090565b6109eb6109cd565b15610a2b576040517f08c379a0000000000000000000000000000000000000000000000000000000008152600401610a2290611994565b60405180910390fd5b610a33611173565b73ffffffffffffffffffffffffffffffffffffffff16610a51610f62565b73ffffffffffffffffffffffffffffffffffffffff1614610aa7576040517f08c379a0000000000000000000000000000000000000000000000000000000008152600401610a9e906119d4565b60405180910390fd5b6001805490508110610ab857600080fd5b600073ffffffffffffffffffffffffffffffffffffffff1660018281548110610b0a577f4e487b7100000000000000000000000000000000000000000000000000000000600052603260045260246000fd5b9060005260206000200160009054906101000a900473ffffffffffffffffffffffffffffffffffffffff1673ffffffffffffffffffffffffffffffffffffffff161415610b5657600080fd5b60018080549050610b679190611c01565b8114610c64576001808080549050610b7f9190611c01565b81548110610bb6577f4e487b7100000000000000000000000000000000000000000000000000000000600052603260045260246000fd5b9060005260206000200160009054906101000a900473ffffffffffffffffffffffffffffffffffffffff1660018281548110610c1b577f4e487b7100000000000000000000000000000000000000000000000000000000600052603260045260246000fd5b9060005260206000200160006101000a81548173ffffffffffffffffffffffffffffffffffffffff021916908373ffffffffffffffffffffffffffffffffffffffff1602179055505b6001805480610c9c577f4e487b7100000000000000000000000000000000000000000000000000000000600052603160045260246000fd5b6001900381819060005260206000200160006101000a81549073ffffffffffffffffffffffffffffffffffffffff0219169055905550565b6000808210158015610cea575060018054905082105b610d29576040517f08c379a0000000000000000000000000000000000000000000000000000000008152600401610d20906119f4565b60405180910390fd5b60018281548110610d63577f4e487b7100000000000000000000000000000000000000000000000000000000600052603260045260246000fd5b9060005260206000200160009054906101000a900473ffffffffffffffffffffffffffffffffffffffff169050919050565b610d9d611173565b73ffffffffffffffffffffffffffffffffffffffff16610dbb610f62565b73ffffffffffffffffffffffffffffffffffffffff1614610e11576040517f08c379a0000000000000000000000000000000000000000000000000000000008152600401610e08906119d4565b60405180910390fd5b600073ffffffffffffffffffffffffffffffffffffffff1660008054906101000a900473ffffffffffffffffffffffffffffffffffffffff1673ffffffffffffffffffffffffffffffffffffffff167f8be0079c531659141344cd1fd0a4f28419497f9722a3daafe3b4186f6b6457e060405160405180910390a360008060006101000a81548173ffffffffffffffffffffffffffffffffffffffff021916908373ffffffffffffffffffffffffffffffffffffffff160217905550565b610ed7611173565b73ffffffffffffffffffffffffffffffffffffffff16610ef5610f62565b73ffffffffffffffffffffffffffffffffffffffff1614610f4b576040517f08c379a0000000000000000000000000000000000000000000000000000000008152600401610f42906119d4565b60405180910390fd5b610f5361121c565b565b6000600180549050905090565b60008060009054906101000a900473ffffffffffffffffffffffffffffffffffffffff16905090565b60018181548110610f9b57600080fd5b906000526020600020016000915054906101000a900473ffffffffffffffffffffffffffffffffffffffff1681565b610fd2611173565b73ffffffffffffffffffffffffffffffffffffffff16610ff0610f62565b73ffffffffffffffffffffffffffffffffffffffff1614611046576040517f08c379a000000000000000000000000000000000000000000000000000000000815260040161103d906119d4565b60405180910390fd5b600073ffffffffffffffffffffffffffffffffffffffff168173ffffffffffffffffffffffffffffffffffffffff1614156110b6576040517f08c379a00000000000000000000000000000000000000000000000000000000081526004016110ad90611974565b60405180910390fd5b8073ffffffffffffffffffffffffffffffffffffffff1660008054906101000a900473ffffffffffffffffffffffffffffffffffffffff1673ffffffffffffffffffffffffffffffffffffffff167f8be0079c531659141344cd1fd0a4f28419497f9722a3daafe3b4186f6b6457e060405160405180910390a3806000806101000a81548173ffffffffffffffffffffffffffffffffffffffff021916908373ffffffffffffffffffffffffffffffffffffffff16021790555050565b600033905090565b6111836109cd565b6111c2576040517f08c379a00000000000000000000000000000000000000000000000000000000081526004016111b990611954565b60405180910390fd5b60008060146101000a81548160ff0219169083151502179055507f5db9ee0a495bf2e6ff9c91a7834c1ba4fdd244a5e8aa4e537bd38aeae4b073aa611205611173565b60405161121291906118a3565b60405180910390a1565b6112246109cd565b15611264576040517f08c379a000000000000000000000000000000000000000000000000000000000815260040161125b90611994565b60405180910390fd5b6001600060146101000a81548160ff0219169083151502179055507f62e78cea01bee320cd4e420270b5ea74000d11b0c9f74754ebdbfc544b05a2586112a8611173565b6040516112b591906118a3565b60405180910390a1565b60006112d26112cd84611b10565b611aeb565b905080838252602082019050828560208602820111156112f157600080fd5b60005b8581101561132157816113078882611446565b8452602084019350602083019250506001810190506112f4565b5050509392505050565b600061133e61133984611b3c565b611aeb565b90508281526020810184848401111561135657600080fd5b611361848285611c7d565b509392505050565b60008135905061137881611eb5565b92915050565b60008083601f84011261139057600080fd5b8235905067ffffffffffffffff8111156113a957600080fd5b6020830191508360208202830111156113c157600080fd5b9250929050565b600082601f8301126113d957600080fd5b81516113e98482602086016112bf565b91505092915050565b60008151905061140181611ecc565b92915050565b600082601f83011261141857600080fd5b815161142884826020860161132b565b91505092915050565b60008135905061144081611ee3565b92915050565b60008151905061145581611ee3565b92915050565b60006020828403121561146d57600080fd5b600061147b84828501611369565b91505092915050565b60008060006060848603121561149957600080fd5b60006114a786828701611369565b93505060206114b886828701611369565b92505060406114c986828701611431565b9150509250925092565b6000602082840312156114e557600080fd5b600082015167ffffffffffffffff8111156114ff57600080fd5b61150b848285016113c8565b91505092915050565b60006020828403121561152657600080fd5b6000611534848285016113f2565b91505092915050565b60006020828403121561154f57600080fd5b600082015167ffffffffffffffff81111561156957600080fd5b61157584828501611407565b91505092915050565b60006020828403121561159057600080fd5b600061159e84828501611431565b91505092915050565b6000602082840312156115b957600080fd5b60006115c784828501611446565b91505092915050565b60008060008060008060a087890312156115e957600080fd5b60006115f789828a01611431565b965050602061160889828a01611431565b955050604087013567ffffffffffffffff81111561162557600080fd5b61163189828a0161137e565b9450945050606061164489828a01611369565b925050608061165589828a01611431565b9150509295509295509295565b600061166e8383611692565b60208301905092915050565b60006116868383611885565b60208301905092915050565b61169b81611c35565b82525050565b6116aa81611c35565b82525050565b60006116bc8385611bb7565b93506116c782611b6d565b8060005b85811015611700576116dd8284611bea565b6116e78882611662565b97506116f283611b9d565b9250506001810190506116cb565b5085925050509392505050565b600061171882611b87565b6117228185611bc8565b935061172d83611b77565b8060005b8381101561175e578151611745888261167a565b975061175083611baa565b925050600181019050611731565b5085935050505092915050565b61177481611c47565b82525050565b600061178582611b92565b61178f8185611bd9565b935061179f818560208601611c7d565b6117a881611d88565b840191505092915050565b60006117c0601483611bd9565b91506117cb82611d99565b602082019050919050565b60006117e3602683611bd9565b91506117ee82611dc2565b604082019050919050565b6000611806601083611bd9565b915061181182611e11565b602082019050919050565b6000611829601c83611bd9565b915061183482611e3a565b602082019050919050565b600061184c602083611bd9565b915061185782611e63565b602082019050919050565b600061186f600d83611bd9565b915061187a82611e8c565b602082019050919050565b61188e81611c73565b82525050565b61189d81611c73565b82525050565b60006020820190506118b860008301846116a1565b92915050565b60006060820190506118d360008301866116a1565b6118e060208301856116a1565b6118ed6040830184611894565b949350505050565b6000602082019050818103600083015261190f818461170d565b905092915050565b600060208201905061192c600083018461176b565b92915050565b6000602082019050818103600083015261194c818461177a565b905092915050565b6000602082019050818103600083015261196d816117b3565b9050919050565b6000602082019050818103600083015261198d816117d6565b9050919050565b600060208201905081810360008301526119ad816117f9565b9050919050565b600060208201905081810360008301526119cd8161181c565b9050919050565b600060208201905081810360008301526119ed8161183f565b9050919050565b60006020820190508181036000830152611a0d81611862565b9050919050565b6000602082019050611a296000830184611894565b92915050565b6000606082019050611a446000830186611894565b611a5160208301856116a1565b611a5e60408301846116a1565b949350505050565b6000604082019050611a7b6000830185611894565b611a886020830184611894565b9392505050565b600060a082019050611aa46000830189611894565b611ab16020830188611894565b8181036040830152611ac48186886116b0565b9050611ad360608301856116a1565b611ae06080830184611894565b979650505050505050565b6000611af5611b06565b9050611b018282611cb0565b919050565b6000604051905090565b600067ffffffffffffffff821115611b2b57611b2a611d59565b5b602082029050602081019050919050565b600067ffffffffffffffff821115611b5757611b56611d59565b5b611b6082611d88565b9050602081019050919050565b6000819050919050565b6000819050602082019050919050565b600081519050919050565b600081519050919050565b6000602082019050919050565b6000602082019050919050565b600082825260208201905092915050565b600082825260208201905092915050565b600082825260208201905092915050565b6000611bf96020840184611369565b905092915050565b6000611c0c82611c73565b9150611c1783611c73565b925082821015611c2a57611c29611d2a565b5b828203905092915050565b6000611c4082611c53565b9050919050565b60008115159050919050565b600073ffffffffffffffffffffffffffffffffffffffff82169050919050565b6000819050919050565b60005b83811015611c9b578082015181840152602081019050611c80565b83811115611caa576000848401525b50505050565b611cb982611d88565b810181811067ffffffffffffffff82111715611cd857611cd7611d59565b5b80604052505050565b6000611cec82611c73565b91507fffffffffffffffffffffffffffffffffffffffffffffffffffffffffffffffff821415611d1f57611d1e611d2a565b5b600182019050919050565b7f4e487b7100000000000000000000000000000000000000000000000000000000600052601160045260246000fd5b7f4e487b7100000000000000000000000000000000000000000000000000000000600052604160045260246000fd5b6000601f19601f8301169050919050565b7f5061757361626c653a206e6f7420706175736564000000000000000000000000600082015250565b7f4f776e61626c653a206e6577206f776e657220697320746865207a65726f206160008201527f6464726573730000000000000000000000000000000000000000000000000000602082015250565b7f5061757361626c653a2070617573656400000000000000000000000000000000600082015250565b7f4f6e6c7920737570706f727420646972656374207377617070696e6700000000600082015250565b7f4f776e61626c653a2063616c6c6572206973206e6f7420746865206f776e6572600082015250565b7f496e76616c696420496e64657800000000000000000000000000000000000000600082015250565b611ebe81611c35565b8114611ec957600080fd5b50565b611ed581611c47565b8114611ee057600080fd5b50565b611eec81611c73565b8114611ef757600080fd5b5056fea264697066735822122094c2501be89749b58648d52704984dadc70b14d1d848dba3f4b2afdff10b116964736f6c63430008030033",
  "immutableReferences": {},
  "source": "// SPDX-License-Identifier: UNLICENSED\npragma solidity >=0.4.22 <0.9.0;\n\nimport \"./interface/IExchangeAdapter.sol\";\nimport \"./uniswap/IERC20.sol\";\nimport \"@openzeppelin/contracts/security/Pausable.sol\";\nimport \"@openzeppelin/contracts/access/Ownable.sol\";\n\ncontract KittenSwapRouter is Ownable, Pausable {\n\n  address[] public _adapters;\n\n  event AdapterRegistered(\n    address adapterAddress,\n    uint adapterIdx\n  );\n\n  function pause() external onlyOwner {\n    _pause();\n  }\n\n  function unpause() external onlyOwner {\n    _unpause();\n  }\n\n  function getAdapterCount() view public returns (uint) {\n    return _adapters.length;\n  }\n  \n  function getAdapterNameByIndex(uint idx) view public returns (string memory name) {\n    require(idx >= 0 && idx < _adapters.length, \"Invalid Index\");\n    name = IExchangeAdapter(_adapters[idx]).getName();\n  }\n\n  function getAdapterAddressByIndex(uint idx) view public returns (address adapterAddr) {\n    require(idx >= 0 && idx < _adapters.length, \"Invalid Index\");\n    adapterAddr = _adapters[idx];\n  }\n\n  function registerAdapter(address adapterAddr) external whenNotPaused onlyOwner {\n    // TODO: check adapterAddr to be a valid adapter contract\n    _adapters.push(adapterAddr);\n  }\n\n  function unregisterAdapter(uint adapterIdx) external whenNotPaused onlyOwner {\n    require(adapterIdx < _adapters.length);\n    require(_adapters[adapterIdx] != address(0x0));\n\n    if (adapterIdx != _adapters.length - 1) {\n      _adapters[adapterIdx] = _adapters[_adapters.length - 1];\n    }\n    _adapters.pop();\n    \n  }\n\n  function getBestQuote(\n    address tokenIn,\n    address tokenOut,\n    uint amountIn\n  ) view public returns (uint bestAmountOut, uint adapterIdxUsed) {\n    bestAmountOut = 0;\n    adapterIdxUsed = 0;\n    for (uint i = 0; i < _adapters.length; i++) {\n      uint amountOut = IExchangeAdapter(_adapters[i]).getAmountOutByTokenPair(amountIn, tokenIn, tokenOut);\n      if (amountOut > bestAmountOut) {\n        bestAmountOut = amountOut;\n        adapterIdxUsed = i;\n      }\n    }\n  }\n\n  function swapExactTokensForTokens(\n      uint amountIn,\n      uint amountOutMin,\n      address[] calldata path,\n      address to,\n      uint deadline\n  ) external whenNotPaused returns (uint[] memory amounts) {\n    require(path.length == 2, 'Only support direct swapping');\n    address tokenIn = path[0];\n    address tokenOut = path[1];\n    (, uint adapterIdxUsed) = getBestQuote(tokenIn, tokenOut, amountIn);\n\n    IExchangeAdapter adapter = IExchangeAdapter(_adapters[adapterIdxUsed]);\n\n    // // tranfer tokens to adapter\n    require(IERC20(tokenIn).transferFrom(msg.sender, address(adapter), amountIn));\n\n    // ask adapter to perform the swap\n    return adapter.swapExactTokensForTokens(amountIn, amountOutMin, path, to, deadline);\n  }\n\n\n}",
  "sourcePath": "/Users/yijiasu/Documents/workspace/KittenSwap/chain/contracts/KittenSwapRouter.sol",
  "compiler": {
    "name": "solc",
    "version": "0.8.3+commit.8d00100c.Emscripten.clang"
  },
  "schemaVersion": "3.4.0",
  "updatedAt": "2021-05-01T16:19:53.864Z",
  "devdoc": {
    "kind": "dev",
    "methods": {
      "owner()": {
        "details": "Returns the address of the current owner."
      },
      "paused()": {
        "details": "Returns true if the contract is paused, and false otherwise."
      },
      "renounceOwnership()": {
        "details": "Leaves the contract without owner. It will not be possible to call `onlyOwner` functions anymore. Can only be called by the current owner. NOTE: Renouncing ownership will leave the contract without an owner, thereby removing any functionality that is only available to the owner."
      },
      "transferOwnership(address)": {
        "details": "Transfers ownership of the contract to a new account (`newOwner`). Can only be called by the current owner."
      }
    },
    "version": 1
  },
  "userdoc": {
    "kind": "user",
    "methods": {},
    "version": 1
  }
}