{
  "contractName": "UniswapExchangeAdapter",
  "abi": [
    {
      "inputs": [
        {
          "internalType": "address",
          "name": "_uniswapRouter",
          "type": "address"
        },
        {
          "internalType": "string",
          "name": "_adapterName",
          "type": "string"
        },
        {
          "internalType": "bytes",
          "name": "_initCodeHash",
          "type": "bytes"
        },
        {
          "internalType": "address",
          "name": "_ksrRouter",
          "type": "address"
        }
      ],
      "stateMutability": "nonpayable",
      "type": "constructor"
    },
    {
      "inputs": [],
      "name": "adapterName",
      "outputs": [
        {
          "internalType": "string",
          "name": "",
          "type": "string"
        }
      ],
      "stateMutability": "view",
      "type": "function"
    },
    {
      "inputs": [],
      "name": "uniswapRouter",
      "outputs": [
        {
          "internalType": "contract IUniswapV2Router02",
          "name": "",
          "type": "address"
        }
      ],
      "stateMutability": "view",
      "type": "function"
    },
    {
      "inputs": [],
      "name": "getName",
      "outputs": [
        {
          "internalType": "string",
          "name": "name",
          "type": "string"
        }
      ],
      "stateMutability": "view",
      "type": "function"
    },
    {
      "inputs": [
        {
          "internalType": "uint256",
          "name": "amountA",
          "type": "uint256"
        },
        {
          "internalType": "uint256",
          "name": "reserveA",
          "type": "uint256"
        },
        {
          "internalType": "uint256",
          "name": "reserveB",
          "type": "uint256"
        }
      ],
      "name": "quote",
      "outputs": [
        {
          "internalType": "uint256",
          "name": "amountB",
          "type": "uint256"
        }
      ],
      "stateMutability": "view",
      "type": "function"
    },
    {
      "inputs": [
        {
          "internalType": "uint256",
          "name": "amountIn",
          "type": "uint256"
        },
        {
          "internalType": "uint256",
          "name": "reserveIn",
          "type": "uint256"
        },
        {
          "internalType": "uint256",
          "name": "reserveOut",
          "type": "uint256"
        }
      ],
      "name": "getAmountOut",
      "outputs": [
        {
          "internalType": "uint256",
          "name": "amountOut",
          "type": "uint256"
        }
      ],
      "stateMutability": "view",
      "type": "function"
    },
    {
      "inputs": [
        {
          "internalType": "uint256",
          "name": "amountOut",
          "type": "uint256"
        },
        {
          "internalType": "uint256",
          "name": "reserveIn",
          "type": "uint256"
        },
        {
          "internalType": "uint256",
          "name": "reserveOut",
          "type": "uint256"
        }
      ],
      "name": "getAmountIn",
      "outputs": [
        {
          "internalType": "uint256",
          "name": "amountIn",
          "type": "uint256"
        }
      ],
      "stateMutability": "view",
      "type": "function"
    },
    {
      "inputs": [
        {
          "internalType": "uint256",
          "name": "amountIn",
          "type": "uint256"
        },
        {
          "internalType": "address",
          "name": "tokenIn",
          "type": "address"
        },
        {
          "internalType": "address",
          "name": "tokenOut",
          "type": "address"
        }
      ],
      "name": "getAmountOutByTokenPair",
      "outputs": [
        {
          "internalType": "uint256",
          "name": "amountOut",
          "type": "uint256"
        }
      ],
      "stateMutability": "view",
      "type": "function"
    },
    {
      "inputs": [
        {
          "internalType": "uint256",
          "name": "amountIn",
          "type": "uint256"
        },
        {
          "internalType": "uint256",
          "name": "amountOutMin",
          "type": "uint256"
        },
        {
          "internalType": "address[]",
          "name": "path",
          "type": "address[]"
        },
        {
          "internalType": "address",
          "name": "to",
          "type": "address"
        },
        {
          "internalType": "uint256",
          "name": "deadline",
          "type": "uint256"
        }
      ],
      "name": "swapExactTokensForTokens",
      "outputs": [
        {
          "internalType": "uint256[]",
          "name": "amounts",
          "type": "uint256[]"
        }
      ],
      "stateMutability": "nonpayable",
      "type": "function"
    }
  ],
  "bytecode": "0x60806040523480156200001157600080fd5b5060405162001de838038062001de8833981810160405281019062000037919062000330565b836000806101000a81548173ffffffffffffffffffffffffffffffffffffffff021916908373ffffffffffffffffffffffffffffffffffffffff16021790555082600290805190602001906200008f929190620000f4565b508160039080519060200190620000a892919062000185565b5080600160006101000a81548173ffffffffffffffffffffffffffffffffffffffff021916908373ffffffffffffffffffffffffffffffffffffffff16021790555050505050620005c2565b8280546200010290620004cd565b90600052602060002090601f01602090048101928262000126576000855562000172565b82601f106200014157805160ff191683800117855562000172565b8280016001018555821562000172579182015b828111156200017157825182559160200191906001019062000154565b5b50905062000181919062000216565b5090565b8280546200019390620004cd565b90600052602060002090601f016020900481019282620001b7576000855562000203565b82601f10620001d257805160ff191683800117855562000203565b8280016001018555821562000203579182015b8281111562000202578251825591602001919060010190620001e5565b5b50905062000212919062000216565b5090565b5b808211156200023157600081600090555060010162000217565b5090565b60006200024c6200024684620003f7565b620003ce565b9050828152602081018484840111156200026557600080fd5b6200027284828562000497565b509392505050565b6000620002916200028b846200042d565b620003ce565b905082815260208101848484011115620002aa57600080fd5b620002b784828562000497565b509392505050565b600081519050620002d081620005a8565b92915050565b600082601f830112620002e857600080fd5b8151620002fa84826020860162000235565b91505092915050565b600082601f8301126200031557600080fd5b8151620003278482602086016200027a565b91505092915050565b600080600080608085870312156200034757600080fd5b60006200035787828801620002bf565b945050602085015167ffffffffffffffff8111156200037557600080fd5b620003838782880162000303565b935050604085015167ffffffffffffffff811115620003a157600080fd5b620003af87828801620002d6565b9250506060620003c287828801620002bf565b91505092959194509250565b6000620003da620003ed565b9050620003e8828262000503565b919050565b6000604051905090565b600067ffffffffffffffff82111562000415576200041462000568565b5b620004208262000597565b9050602081019050919050565b600067ffffffffffffffff8211156200044b576200044a62000568565b5b620004568262000597565b9050602081019050919050565b6000620004708262000477565b9050919050565b600073ffffffffffffffffffffffffffffffffffffffff82169050919050565b60005b83811015620004b75780820151818401526020810190506200049a565b83811115620004c7576000848401525b50505050565b60006002820490506001821680620004e657607f821691505b60208210811415620004fd57620004fc62000539565b5b50919050565b6200050e8262000597565b810181811067ffffffffffffffff8211171562000530576200052f62000568565b5b80604052505050565b7f4e487b7100000000000000000000000000000000000000000000000000000000600052602260045260246000fd5b7f4e487b7100000000000000000000000000000000000000000000000000000000600052604160045260246000fd5b6000601f19601f8301169050919050565b620005b38162000463565b8114620005bf57600080fd5b50565b61181680620005d26000396000f3fe608060405234801561001057600080fd5b50600436106100885760003560e01c806385f8c2591161005b57806385f8c25914610129578063ad615dec14610159578063ba28657814610189578063d9abf508146101a757610088565b8063054d50d41461008d57806317d7de7c146100bd57806338ed1739146100db578063735de9f71461010b575b600080fd5b6100a760048036038101906100a29190610e95565b6101d7565b6040516100b491906112f3565b60405180910390f35b6100c5610290565b6040516100d29190611271565b60405180910390f35b6100f560048036038101906100f09190610e03565b610322565b6040516101029190611234565b60405180910390f35b610113610596565b6040516101209190611256565b60405180910390f35b610143600480360381019061013e9190610e95565b6105ba565b60405161015091906112f3565b60405180910390f35b610173600480360381019061016e9190610e95565b610673565b60405161018091906112f3565b60405180910390f35b61019161072c565b60405161019e9190611271565b60405180910390f35b6101c160048036038101906101bc9190610db4565b6107ba565b6040516101ce91906112f3565b60405180910390f35b60008060009054906101000a900473ffffffffffffffffffffffffffffffffffffffff1673ffffffffffffffffffffffffffffffffffffffff1663054d50d48585856040518463ffffffff1660e01b81526004016102379392919061136a565b60206040518083038186803b15801561024f57600080fd5b505afa158015610263573d6000803e3d6000fd5b505050506040513d601f19601f820116820180604052508101906102879190610d8b565b90509392505050565b60606002805461029f90611596565b80601f01602080910402602001604051908101604052809291908181526020018280546102cb90611596565b80156103185780601f106102ed57610100808354040283529160200191610318565b820191906000526020600020905b8154815290600101906020018083116102fb57829003601f168201915b5050505050905090565b6060600160009054906101000a900473ffffffffffffffffffffffffffffffffffffffff1673ffffffffffffffffffffffffffffffffffffffff163373ffffffffffffffffffffffffffffffffffffffff16146103b4576040517f08c379a00000000000000000000000000000000000000000000000000000000081526004016103ab906112b3565b60405180910390fd5b848460008181106103ee577f4e487b7100000000000000000000000000000000000000000000000000000000600052603260045260246000fd5b90506020020160208101906104039190610c80565b73ffffffffffffffffffffffffffffffffffffffff1663095ea7b360008054906101000a900473ffffffffffffffffffffffffffffffffffffffff167fffffffffffffffffffffffffffffffffffffffffffffffffffffffffffffffff6040518363ffffffff1660e01b815260040161047d92919061120b565b602060405180830381600087803b15801561049757600080fd5b505af11580156104ab573d6000803e3d6000fd5b505050506040513d601f19601f820116820180604052508101906104cf9190610d13565b5060008054906101000a900473ffffffffffffffffffffffffffffffffffffffff1673ffffffffffffffffffffffffffffffffffffffff166338ed17398888888888886040518763ffffffff1660e01b81526004016105339695949392919061130e565b600060405180830381600087803b15801561054d57600080fd5b505af1158015610561573d6000803e3d6000fd5b505050506040513d6000823e3d601f19601f8201168201806040525081019061058a9190610cd2565b90509695505050505050565b60008054906101000a900473ffffffffffffffffffffffffffffffffffffffff1681565b60008060009054906101000a900473ffffffffffffffffffffffffffffffffffffffff1673ffffffffffffffffffffffffffffffffffffffff166385f8c2598585856040518463ffffffff1660e01b815260040161061a9392919061136a565b60206040518083038186803b15801561063257600080fd5b505afa158015610646573d6000803e3d6000fd5b505050506040513d601f19601f8201168201806040525081019061066a9190610d8b565b90509392505050565b60008060009054906101000a900473ffffffffffffffffffffffffffffffffffffffff1673ffffffffffffffffffffffffffffffffffffffff1663ad615dec8585856040518463ffffffff1660e01b81526004016106d39392919061136a565b60206040518083038186803b1580156106eb57600080fd5b505afa1580156106ff573d6000803e3d6000fd5b505050506040513d601f19601f820116820180604052508101906107239190610d8b565b90509392505050565b6002805461073990611596565b80601f016020809104026020016040519081016040528092919081815260200182805461076590611596565b80156107b25780601f10610787576101008083540402835291602001916107b2565b820191906000526020600020905b81548152906001019060200180831161079557829003601f168201915b505050505081565b60008060008054906101000a900473ffffffffffffffffffffffffffffffffffffffff1673ffffffffffffffffffffffffffffffffffffffff1663c45a01556040518163ffffffff1660e01b815260040160206040518083038186803b15801561082357600080fd5b505afa158015610837573d6000803e3d6000fd5b505050506040513d601f19601f8201168201806040525081019061085b9190610ca9565b905060008061086b83878761096a565b73ffffffffffffffffffffffffffffffffffffffff16630902f1ac6040518163ffffffff1660e01b815260040160606040518083038186803b1580156108b057600080fd5b505afa1580156108c4573d6000803e3d6000fd5b505050506040513d601f19601f820116820180604052508101906108e89190610d3c565b506dffffffffffffffffffffffffffff1691506dffffffffffffffffffffffffffff1691506000808673ffffffffffffffffffffffffffffffffffffffff168873ffffffffffffffffffffffffffffffffffffffff161061094a57828461094d565b83835b9150915061095c8983836101d7565b955050505050509392505050565b600080600061097985856109df565b9150915085828260405160200161099192919061119b565b6040516020818303038152906040528051906020012060036040516020016109bb939291906111c7565b6040516020818303038152906040528051906020012060001c925050509392505050565b6000808273ffffffffffffffffffffffffffffffffffffffff168473ffffffffffffffffffffffffffffffffffffffff161415610a51576040517f08c379a0000000000000000000000000000000000000000000000000000000008152600401610a4890611293565b60405180910390fd5b8273ffffffffffffffffffffffffffffffffffffffff168473ffffffffffffffffffffffffffffffffffffffff1610610a8b578284610a8e565b83835b8092508193505050600073ffffffffffffffffffffffffffffffffffffffff168273ffffffffffffffffffffffffffffffffffffffff161415610b06576040517f08c379a0000000000000000000000000000000000000000000000000000000008152600401610afd906112d3565b60405180910390fd5b9250929050565b6000610b20610b1b846113c6565b6113a1565b90508083825260208201905082856020860282011115610b3f57600080fd5b60005b85811015610b6f5781610b558882610c56565b845260208401935060208301925050600181019050610b42565b5050509392505050565b600081359050610b888161176d565b92915050565b600081519050610b9d8161176d565b92915050565b60008083601f840112610bb557600080fd5b8235905067ffffffffffffffff811115610bce57600080fd5b602083019150836020820283011115610be657600080fd5b9250929050565b600082601f830112610bfe57600080fd5b8151610c0e848260208601610b0d565b91505092915050565b600081519050610c2681611784565b92915050565b600081519050610c3b8161179b565b92915050565b600081359050610c50816117b2565b92915050565b600081519050610c65816117b2565b92915050565b600081519050610c7a816117c9565b92915050565b600060208284031215610c9257600080fd5b6000610ca084828501610b79565b91505092915050565b600060208284031215610cbb57600080fd5b6000610cc984828501610b8e565b91505092915050565b600060208284031215610ce457600080fd5b600082015167ffffffffffffffff811115610cfe57600080fd5b610d0a84828501610bed565b91505092915050565b600060208284031215610d2557600080fd5b6000610d3384828501610c17565b91505092915050565b600080600060608486031215610d5157600080fd5b6000610d5f86828701610c2c565b9350506020610d7086828701610c2c565b9250506040610d8186828701610c6b565b9150509250925092565b600060208284031215610d9d57600080fd5b6000610dab84828501610c56565b91505092915050565b600080600060608486031215610dc957600080fd5b6000610dd786828701610c41565b9350506020610de886828701610b79565b9250506040610df986828701610b79565b9150509250925092565b60008060008060008060a08789031215610e1c57600080fd5b6000610e2a89828a01610c41565b9650506020610e3b89828a01610c41565b955050604087013567ffffffffffffffff811115610e5857600080fd5b610e6489828a01610ba3565b94509450506060610e7789828a01610b79565b9250506080610e8889828a01610c41565b9150509295509295509295565b600080600060608486031215610eaa57600080fd5b6000610eb886828701610c41565b9350506020610ec986828701610c41565b9250506040610eda86828701610c41565b9150509250925092565b6000610ef08383610f14565b60208301905092915050565b6000610f08838361117d565b60208301905092915050565b610f1d816114b1565b82525050565b610f2c816114b1565b82525050565b610f43610f3e826114b1565b6115f9565b82525050565b6000610f558385611451565b9350610f60826113f2565b8060005b85811015610f9957610f76828461149a565b610f808882610ee4565b9750610f8b83611437565b925050600181019050610f64565b5085925050509392505050565b6000610fb182611421565b610fbb8185611462565b9350610fc6836113fc565b8060005b83811015610ff7578151610fde8882610efc565b9750610fe983611444565b925050600181019050610fca565b5085935050505092915050565b611015611010826114cf565b61160b565b82525050565b6000815461102881611596565b6110328186611473565b9450600182166000811461104d576001811461105e57611091565b60ff19831686528186019350611091565b6110678561140c565b60005b838110156110895781548189015260018201915060208101905061106a565b838801955050505b50505092915050565b6110a38161152d565b82525050565b6110b281611551565b82525050565b60006110c38261142c565b6110cd818561147e565b93506110dd818560208601611563565b6110e681611685565b840191505092915050565b60006110fe60258361147e565b9150611109826116a3565b604082019050919050565b600061112160018361148f565b915061112c826116f2565b600182019050919050565b600061114460168361147e565b915061114f8261171b565b602082019050919050565b6000611167601e8361147e565b915061117282611744565b602082019050919050565b61118681611513565b82525050565b61119581611513565b82525050565b60006111a78285610f32565b6014820191506111b78284610f32565b6014820191508190509392505050565b60006111d282611114565b91506111de8286610f32565b6014820191506111ee8285611004565b6020820191506111fe828461101b565b9150819050949350505050565b60006040820190506112206000830185610f23565b61122d60208301846110a9565b9392505050565b6000602082019050818103600083015261124e8184610fa6565b905092915050565b600060208201905061126b600083018461109a565b92915050565b6000602082019050818103600083015261128b81846110b8565b905092915050565b600060208201905081810360008301526112ac816110f1565b9050919050565b600060208201905081810360008301526112cc81611137565b9050919050565b600060208201905081810360008301526112ec8161115a565b9050919050565b6000602082019050611308600083018461118c565b92915050565b600060a082019050611323600083018961118c565b611330602083018861118c565b8181036040830152611343818688610f49565b90506113526060830185610f23565b61135f608083018461118c565b979650505050505050565b600060608201905061137f600083018661118c565b61138c602083018561118c565b611399604083018461118c565b949350505050565b60006113ab6113bc565b90506113b782826115c8565b919050565b6000604051905090565b600067ffffffffffffffff8211156113e1576113e0611656565b5b602082029050602081019050919050565b6000819050919050565b6000819050602082019050919050565b60008190508160005260206000209050919050565b600081519050919050565b600081519050919050565b6000602082019050919050565b6000602082019050919050565b600082825260208201905092915050565b600082825260208201905092915050565b600081905092915050565b600082825260208201905092915050565b600081905092915050565b60006114a96020840184610b79565b905092915050565b60006114bc826114f3565b9050919050565b60008115159050919050565b6000819050919050565b60006dffffffffffffffffffffffffffff82169050919050565b600073ffffffffffffffffffffffffffffffffffffffff82169050919050565b6000819050919050565b600063ffffffff82169050919050565b60006115388261153f565b9050919050565b600061154a826114f3565b9050919050565b600061155c82611513565b9050919050565b60005b83811015611581578082015181840152602081019050611566565b83811115611590576000848401525b50505050565b600060028204905060018216806115ae57607f821691505b602082108114156115c2576115c1611627565b5b50919050565b6115d182611685565b810181811067ffffffffffffffff821117156115f0576115ef611656565b5b80604052505050565b600061160482611615565b9050919050565b6000819050919050565b600061162082611696565b9050919050565b7f4e487b7100000000000000000000000000000000000000000000000000000000600052602260045260246000fd5b7f4e487b7100000000000000000000000000000000000000000000000000000000600052604160045260246000fd5b6000601f19601f8301169050919050565b60008160601b9050919050565b7f556e697377617056324c6962726172793a204944454e544943414c5f4144445260008201527f4553534553000000000000000000000000000000000000000000000000000000602082015250565b7fff00000000000000000000000000000000000000000000000000000000000000600082015250565b7f4f4e4c595f414c4c4f575f524f555445525f43414c4c00000000000000000000600082015250565b7f556e697377617056324c6962726172793a205a45524f5f414444524553530000600082015250565b611776816114b1565b811461178157600080fd5b50565b61178d816114c3565b811461179857600080fd5b50565b6117a4816114d9565b81146117af57600080fd5b50565b6117bb81611513565b81146117c657600080fd5b50565b6117d28161151d565b81146117dd57600080fd5b5056fea2646970667358221220c8f0c82371a493316d34691fe58a977bf2141855441585057c9159ad1cf391a364736f6c63430008030033",
  "immutableReferences": {},
  "source": "// SPDX-License-Identifier: UNLICENSED\npragma solidity >=0.4.22 <0.9.0;\n\nimport \"./uniswap/IUniswapV2Router02.sol\";\nimport \"./uniswap/IUniswapV2Factory.sol\";\nimport \"./uniswap/IUniswapV2Pair.sol\";\nimport \"./uniswap/IERC20.sol\";\n\nimport \"./interface/IExchangeAdapter.sol\";\nimport \"@openzeppelin/contracts/access/Ownable.sol\";\n\ncontract UniswapExchangeAdapter is IExchangeAdapter {\n\n    IUniswapV2Router02 public uniswapRouter;\n    address private _deployedRouter;\n    string public adapterName;\n    bytes private initCodeHash;\n\n    modifier onlyRouterCall () {\n      require(msg.sender == _deployedRouter, \"ONLY_ALLOW_ROUTER_CALL\");\n      _;\n    }\n  \n    constructor(address _uniswapRouter, string memory _adapterName, bytes memory _initCodeHash, address _ksrRouter) {\n      uniswapRouter = IUniswapV2Router02(_uniswapRouter);\n      adapterName = _adapterName;\n      initCodeHash = _initCodeHash;\n      _deployedRouter = _ksrRouter;\n    }\n\n    // returns sorted token addresses, used to handle return values from pairs sorted in this order\n    function sortTokens(address tokenA, address tokenB) internal pure returns (address token0, address token1) {\n        require(tokenA != tokenB, 'UniswapV2Library: IDENTICAL_ADDRESSES');\n        (token0, token1) = tokenA < tokenB ? (tokenA, tokenB) : (tokenB, tokenA);\n        require(token0 != address(0), 'UniswapV2Library: ZERO_ADDRESS');\n    }\n\n    // calculates the CREATE2 address for a pair without making any external calls\n    function pairFor(address factory, address tokenA, address tokenB) internal view returns (address pair) {\n        (address token0, address token1) = sortTokens(tokenA, tokenB);\n        pair = address(uint160(uint256(keccak256(abi.encodePacked(\n                hex'ff',\n                factory,\n                keccak256(abi.encodePacked(token0, token1)),\n                initCodeHash\n                // hex'96e8ac4277198ff8b6f785478aa9a39f403cb768dd02cbee326c3e7da348845f' // init code hash\n            )))));\n    }\n\n\n    function getName() override public view returns (string memory name) {\n      name = adapterName;\n    }\n\n    function quote(uint amountA, uint reserveA, uint reserveB) override public view returns (uint amountB) {\n      amountB = uniswapRouter.quote(amountA, reserveA, reserveB);\n    }\n    function getAmountOut(uint amountIn, uint reserveIn, uint reserveOut) override public view returns (uint amountOut) {\n      amountOut = uniswapRouter.getAmountOut(amountIn, reserveIn, reserveOut);\n    }\n    function getAmountIn(uint amountOut, uint reserveIn, uint reserveOut) override public view returns (uint amountIn) {\n      amountIn = uniswapRouter.getAmountIn(amountOut, reserveIn, reserveOut);\n    }\n\n    function getAmountOutByTokenPair(uint amountIn, address tokenIn, address tokenOut) override public view returns (uint amountOut) {\n      address factory = uniswapRouter.factory();\n      (uint reserve0, uint reserve1, ) = IUniswapV2Pair(pairFor(factory, tokenIn, tokenOut)).getReserves();\n      (uint reseverIn, uint reserveOut) = tokenIn < tokenOut ? (reserve0, reserve1) : (reserve1, reserve0);\n      amountOut = getAmountOut(amountIn, reseverIn, reserveOut);\n    }\n\n    function swapExactTokensForTokens(\n        uint amountIn,\n        uint amountOutMin,\n        address[] calldata path,\n        address to,\n        uint deadline\n    ) override external onlyRouterCall returns (uint[] memory amounts) {\n      IERC20(path[0]).approve(address(uniswapRouter), 2**256 - 1);\n      return uniswapRouter.swapExactTokensForTokens(amountIn, amountOutMin, path, to, deadline);\n    }\n\n\n}",
  "sourcePath": "/Users/yijiasu/Documents/workspace/KittenSwap/chain/contracts/UniswapExchangeAdapter.sol",
  "compiler": {
    "name": "solc",
    "version": "0.8.3+commit.8d00100c.Emscripten.clang"
  },
  "schemaVersion": "3.4.0",
  "updatedAt": "2021-05-01T16:19:53.880Z",
  "devdoc": {
    "kind": "dev",
    "methods": {},
    "version": 1
  },
  "userdoc": {
    "kind": "user",
    "methods": {},
    "version": 1
  }
}