{
  "contractName": "KittenSwapRouter",
  "abi": [
    {
      "inputs": [
        {
          "internalType": "uint256",
          "name": "",
          "type": "uint256"
        }
      ],
      "name": "_adapters",
      "outputs": [
        {
          "internalType": "address",
          "name": "",
          "type": "address"
        }
      ],
      "stateMutability": "view",
      "type": "function"
    },
    {
      "inputs": [],
      "name": "getAdapterCount",
      "outputs": [
        {
          "internalType": "uint256",
          "name": "",
          "type": "uint256"
        }
      ],
      "stateMutability": "view",
      "type": "function"
    },
    {
      "inputs": [
        {
          "internalType": "uint256",
          "name": "idx",
          "type": "uint256"
        }
      ],
      "name": "getAdapterNameByIndex",
      "outputs": [
        {
          "internalType": "string",
          "name": "name",
          "type": "string"
        }
      ],
      "stateMutability": "view",
      "type": "function"
    },
    {
      "inputs": [
        {
          "internalType": "uint256",
          "name": "idx",
          "type": "uint256"
        }
      ],
      "name": "getAdapterAddressByIndex",
      "outputs": [
        {
          "internalType": "address",
          "name": "adapterAddr",
          "type": "address"
        }
      ],
      "stateMutability": "view",
      "type": "function"
    },
    {
      "inputs": [
        {
          "internalType": "address",
          "name": "adapterAddr",
          "type": "address"
        }
      ],
      "name": "addNewAdapter",
      "outputs": [],
      "stateMutability": "nonpayable",
      "type": "function"
    },
    {
      "inputs": [
        {
          "internalType": "address",
          "name": "tokenIn",
          "type": "address"
        },
        {
          "internalType": "address",
          "name": "tokenOut",
          "type": "address"
        },
        {
          "internalType": "uint256",
          "name": "amountIn",
          "type": "uint256"
        }
      ],
      "name": "getBestQuote",
      "outputs": [
        {
          "internalType": "uint256",
          "name": "bestAmountOut",
          "type": "uint256"
        },
        {
          "internalType": "uint256",
          "name": "adapterIdxUsed",
          "type": "uint256"
        }
      ],
      "stateMutability": "view",
      "type": "function"
    },
    {
      "inputs": [
        {
          "internalType": "uint256",
          "name": "amountIn",
          "type": "uint256"
        },
        {
          "internalType": "uint256",
          "name": "amountOutMin",
          "type": "uint256"
        },
        {
          "internalType": "address[]",
          "name": "path",
          "type": "address[]"
        },
        {
          "internalType": "address",
          "name": "to",
          "type": "address"
        },
        {
          "internalType": "uint256",
          "name": "deadline",
          "type": "uint256"
        }
      ],
      "name": "swapExactTokensForTokens",
      "outputs": [
        {
          "internalType": "uint256[]",
          "name": "amounts",
          "type": "uint256[]"
        }
      ],
      "stateMutability": "nonpayable",
      "type": "function"
    }
  ],
  "bytecode": "0x608060405234801561001057600080fd5b50610cc1806100206000396000f3fe608060405234801561001057600080fd5b506004361061007d5760003560e01c80635bbb86101161005b5780635bbb8610146100ff578063610976e01461012f5780638a12fad91461015f578063a6e422fe1461017d5761007d565b80631fc5413b14610082578063228c04b81461009e57806338ed1739146100cf575b600080fd5b61009c6004803603810190610097919061069b565b6101ad565b005b6100b860048036038101906100b391906106c4565b610213565b6040516100c6929190610a08565b60405180910390f35b6100e960048036038101906100e491906107a6565b61034e565b6040516100f69190610952565b60405180910390f35b61011960048036038101906101149190610754565b61035a565b6040516101269190610974565b60405180910390f35b61014960048036038101906101449190610754565b61049e565b6040516101569190610937565b60405180910390f35b61016761055f565b60405161017491906109b6565b60405180910390f35b61019760048036038101906101929190610754565b61056b565b6040516101a49190610937565b60405180910390f35b6000819080600181540180825580915050600190039060005260206000200160009091909190916101000a81548173ffffffffffffffffffffffffffffffffffffffff021916908373ffffffffffffffffffffffffffffffffffffffff16021790555050565b600080600091506000905060005b600080549050811015610345576000808281548110610269577f4e487b7100000000000000000000000000000000000000000000000000000000600052603260045260246000fd5b9060005260206000200160009054906101000a900473ffffffffffffffffffffffffffffffffffffffff1673ffffffffffffffffffffffffffffffffffffffff1663d9abf5088689896040518463ffffffff1660e01b81526004016102d0939291906109d1565b60206040518083038186803b1580156102e857600080fd5b505afa1580156102fc573d6000803e3d6000fd5b505050506040513d601f19601f82011682018060405250810190610320919061077d565b905083811115610331578093508192505b50808061033d90610b7c565b915050610221565b50935093915050565b60609695505050505050565b606060008210158015610371575060008054905082105b6103b0576040517f08c379a00000000000000000000000000000000000000000000000000000000081526004016103a790610996565b60405180910390fd5b600082815481106103ea577f4e487b7100000000000000000000000000000000000000000000000000000000600052603260045260246000fd5b9060005260206000200160009054906101000a900473ffffffffffffffffffffffffffffffffffffffff1673ffffffffffffffffffffffffffffffffffffffff166317d7de7c6040518163ffffffff1660e01b815260040160006040518083038186803b15801561045a57600080fd5b505afa15801561046e573d6000803e3d6000fd5b505050506040513d6000823e3d601f19601f820116820180604052508101906104979190610713565b9050919050565b60008082101580156104b4575060008054905082105b6104f3576040517f08c379a00000000000000000000000000000000000000000000000000000000081526004016104ea90610996565b60405180910390fd5b6000828154811061052d577f4e487b7100000000000000000000000000000000000000000000000000000000600052603260045260246000fd5b9060005260206000200160009054906101000a900473ffffffffffffffffffffffffffffffffffffffff169050919050565b60008080549050905090565b6000818154811061057b57600080fd5b906000526020600020016000915054906101000a900473ffffffffffffffffffffffffffffffffffffffff1681565b60006105bd6105b884610a56565b610a31565b9050828152602081018484840111156105d557600080fd5b6105e0848285610b18565b509392505050565b6000813590506105f781610c5d565b92915050565b60008083601f84011261060f57600080fd5b8235905067ffffffffffffffff81111561062857600080fd5b60208301915083602082028301111561064057600080fd5b9250929050565b600082601f83011261065857600080fd5b81516106688482602086016105aa565b91505092915050565b60008135905061068081610c74565b92915050565b60008151905061069581610c74565b92915050565b6000602082840312156106ad57600080fd5b60006106bb848285016105e8565b91505092915050565b6000806000606084860312156106d957600080fd5b60006106e7868287016105e8565b93505060206106f8868287016105e8565b925050604061070986828701610671565b9150509250925092565b60006020828403121561072557600080fd5b600082015167ffffffffffffffff81111561073f57600080fd5b61074b84828501610647565b91505092915050565b60006020828403121561076657600080fd5b600061077484828501610671565b91505092915050565b60006020828403121561078f57600080fd5b600061079d84828501610686565b91505092915050565b60008060008060008060a087890312156107bf57600080fd5b60006107cd89828a01610671565b96505060206107de89828a01610671565b955050604087013567ffffffffffffffff8111156107fb57600080fd5b61080789828a016105fd565b9450945050606061081a89828a016105e8565b925050608061082b89828a01610671565b9150509295509295509295565b60006108448383610919565b60208301905092915050565b61085981610adc565b82525050565b600061086a82610a97565b6108748185610aba565b935061087f83610a87565b8060005b838110156108b05781516108978882610838565b97506108a283610aad565b925050600181019050610883565b5085935050505092915050565b60006108c882610aa2565b6108d28185610acb565b93506108e2818560208601610b18565b6108eb81610c23565b840191505092915050565b6000610903600d83610acb565b915061090e82610c34565b602082019050919050565b61092281610b0e565b82525050565b61093181610b0e565b82525050565b600060208201905061094c6000830184610850565b92915050565b6000602082019050818103600083015261096c818461085f565b905092915050565b6000602082019050818103600083015261098e81846108bd565b905092915050565b600060208201905081810360008301526109af816108f6565b9050919050565b60006020820190506109cb6000830184610928565b92915050565b60006060820190506109e66000830186610928565b6109f36020830185610850565b610a006040830184610850565b949350505050565b6000604082019050610a1d6000830185610928565b610a2a6020830184610928565b9392505050565b6000610a3b610a4c565b9050610a478282610b4b565b919050565b6000604051905090565b600067ffffffffffffffff821115610a7157610a70610bf4565b5b610a7a82610c23565b9050602081019050919050565b6000819050602082019050919050565b600081519050919050565b600081519050919050565b6000602082019050919050565b600082825260208201905092915050565b600082825260208201905092915050565b6000610ae782610aee565b9050919050565b600073ffffffffffffffffffffffffffffffffffffffff82169050919050565b6000819050919050565b60005b83811015610b36578082015181840152602081019050610b1b565b83811115610b45576000848401525b50505050565b610b5482610c23565b810181811067ffffffffffffffff82111715610b7357610b72610bf4565b5b80604052505050565b6000610b8782610b0e565b91507fffffffffffffffffffffffffffffffffffffffffffffffffffffffffffffffff821415610bba57610bb9610bc5565b5b600182019050919050565b7f4e487b7100000000000000000000000000000000000000000000000000000000600052601160045260246000fd5b7f4e487b7100000000000000000000000000000000000000000000000000000000600052604160045260246000fd5b6000601f19601f8301169050919050565b7f496e76616c696420496e64657800000000000000000000000000000000000000600082015250565b610c6681610adc565b8114610c7157600080fd5b50565b610c7d81610b0e565b8114610c8857600080fd5b5056fea264697066735822122039b6be7123b3ef44a0a16c4a3c38fbc7d7dda041028a1b91a0743a73f82765ae64736f6c63430008030033",
  "immutableReferences": {},
  "source": "// SPDX-License-Identifier: MIT\npragma solidity >=0.4.22 <0.9.0;\n\nimport \"./interface/IExchangeAdapter.sol\";\n\ncontract KittenSwapRouter {\n\n  address[] public _adapters;\n\n  function getAdapterCount() view public returns (uint) {\n    return _adapters.length;\n  }\n  \n  function getAdapterNameByIndex(uint idx) view public returns (string memory name) {\n    require(idx >= 0 && idx < _adapters.length, \"Invalid Index\");\n    name = IExchangeAdapter(_adapters[idx]).getName();\n  }\n\n  function getAdapterAddressByIndex(uint idx) view public returns (address adapterAddr) {\n    require(idx >= 0 && idx < _adapters.length, \"Invalid Index\");\n    adapterAddr = _adapters[idx];\n  }\n\n  // TODO: this method should be protected\n  // call by contract owners only\n  function addNewAdapter(address adapterAddr) external {\n    // TODO: check adapterAddr to be a valid adapter contract\n    _adapters.push(adapterAddr);\n  }\n\n  function getBestQuote(\n    address tokenIn,\n    address tokenOut,\n    uint amountIn\n  ) view public returns (uint bestAmountOut, uint adapterIdxUsed) {\n    bestAmountOut = 0;\n    adapterIdxUsed = 0;\n    for (uint i = 0; i < _adapters.length; i++) {\n      uint amountOut = IExchangeAdapter(_adapters[i]).getAmountOutByTokenPair(amountIn, tokenIn, tokenOut);\n      if (amountOut > bestAmountOut) {\n        bestAmountOut = amountOut;\n        adapterIdxUsed = i;\n      }\n    }\n  }\n\n  function swapExactTokensForTokens(\n      uint amountIn,\n      uint amountOutMin,\n      address[] calldata path,\n      address to,\n      uint deadline\n  ) external returns (uint[] memory amounts) {\n\n  }\n\n\n}",
  "sourcePath": "/Users/yijiasu/Documents/workspace/KittenSwap/chain/contracts/KittenSwapRouter.sol",
  "compiler": {
    "name": "solc",
    "version": "0.8.3+commit.8d00100c.Emscripten.clang"
  },
  "schemaVersion": "3.4.0",
  "updatedAt": "2021-04-27T12:01:13.824Z",
  "devdoc": {
    "kind": "dev",
    "methods": {},
    "version": 1
  },
  "userdoc": {
    "kind": "user",
    "methods": {},
    "version": 1
  }
}