{
  "contractName": "UniswapExchangeAdapter",
  "abi": [
    {
      "inputs": [
        {
          "internalType": "address",
          "name": "_uniswapRouter",
          "type": "address"
        },
        {
          "internalType": "string",
          "name": "_adapterName",
          "type": "string"
        },
        {
          "internalType": "bytes",
          "name": "_initCodeHash",
          "type": "bytes"
        }
      ],
      "stateMutability": "nonpayable",
      "type": "constructor"
    },
    {
      "inputs": [],
      "name": "adapterName",
      "outputs": [
        {
          "internalType": "string",
          "name": "",
          "type": "string"
        }
      ],
      "stateMutability": "view",
      "type": "function"
    },
    {
      "inputs": [],
      "name": "uniswapRouter",
      "outputs": [
        {
          "internalType": "contract IUniswapV2Router02",
          "name": "",
          "type": "address"
        }
      ],
      "stateMutability": "view",
      "type": "function"
    },
    {
      "inputs": [],
      "name": "getName",
      "outputs": [
        {
          "internalType": "string",
          "name": "name",
          "type": "string"
        }
      ],
      "stateMutability": "view",
      "type": "function"
    },
    {
      "inputs": [
        {
          "internalType": "uint256",
          "name": "amountA",
          "type": "uint256"
        },
        {
          "internalType": "uint256",
          "name": "reserveA",
          "type": "uint256"
        },
        {
          "internalType": "uint256",
          "name": "reserveB",
          "type": "uint256"
        }
      ],
      "name": "quote",
      "outputs": [
        {
          "internalType": "uint256",
          "name": "amountB",
          "type": "uint256"
        }
      ],
      "stateMutability": "view",
      "type": "function"
    },
    {
      "inputs": [
        {
          "internalType": "uint256",
          "name": "amountIn",
          "type": "uint256"
        },
        {
          "internalType": "uint256",
          "name": "reserveIn",
          "type": "uint256"
        },
        {
          "internalType": "uint256",
          "name": "reserveOut",
          "type": "uint256"
        }
      ],
      "name": "getAmountOut",
      "outputs": [
        {
          "internalType": "uint256",
          "name": "amountOut",
          "type": "uint256"
        }
      ],
      "stateMutability": "view",
      "type": "function"
    },
    {
      "inputs": [
        {
          "internalType": "uint256",
          "name": "amountOut",
          "type": "uint256"
        },
        {
          "internalType": "uint256",
          "name": "reserveIn",
          "type": "uint256"
        },
        {
          "internalType": "uint256",
          "name": "reserveOut",
          "type": "uint256"
        }
      ],
      "name": "getAmountIn",
      "outputs": [
        {
          "internalType": "uint256",
          "name": "amountIn",
          "type": "uint256"
        }
      ],
      "stateMutability": "view",
      "type": "function"
    },
    {
      "inputs": [
        {
          "internalType": "uint256",
          "name": "amountIn",
          "type": "uint256"
        },
        {
          "internalType": "address",
          "name": "tokenIn",
          "type": "address"
        },
        {
          "internalType": "address",
          "name": "tokenOut",
          "type": "address"
        }
      ],
      "name": "getAmountOutByTokenPair",
      "outputs": [
        {
          "internalType": "uint256",
          "name": "amountOut",
          "type": "uint256"
        }
      ],
      "stateMutability": "view",
      "type": "function"
    }
  ],
  "bytecode": "0x60806040523480156200001157600080fd5b506040516200152f3803806200152f8339818101604052810190620000379190620002ee565b826000806101000a81548173ffffffffffffffffffffffffffffffffffffffff021916908373ffffffffffffffffffffffffffffffffffffffff16021790555081600190805190602001906200008f929190620000b2565b508060029080519060200190620000a892919062000143565b505050506200056a565b828054620000c09062000475565b90600052602060002090601f016020900481019282620000e4576000855562000130565b82601f10620000ff57805160ff191683800117855562000130565b8280016001018555821562000130579182015b828111156200012f57825182559160200191906001019062000112565b5b5090506200013f9190620001d4565b5090565b828054620001519062000475565b90600052602060002090601f016020900481019282620001755760008555620001c1565b82601f106200019057805160ff1916838001178555620001c1565b82800160010185558215620001c1579182015b82811115620001c0578251825591602001919060010190620001a3565b5b509050620001d09190620001d4565b5090565b5b80821115620001ef576000816000905550600101620001d5565b5090565b60006200020a62000204846200039f565b62000376565b9050828152602081018484840111156200022357600080fd5b620002308482856200043f565b509392505050565b60006200024f6200024984620003d5565b62000376565b9050828152602081018484840111156200026857600080fd5b620002758482856200043f565b509392505050565b6000815190506200028e8162000550565b92915050565b600082601f830112620002a657600080fd5b8151620002b8848260208601620001f3565b91505092915050565b600082601f830112620002d357600080fd5b8151620002e584826020860162000238565b91505092915050565b6000806000606084860312156200030457600080fd5b600062000314868287016200027d565b935050602084015167ffffffffffffffff8111156200033257600080fd5b6200034086828701620002c1565b925050604084015167ffffffffffffffff8111156200035e57600080fd5b6200036c8682870162000294565b9150509250925092565b60006200038262000395565b9050620003908282620004ab565b919050565b6000604051905090565b600067ffffffffffffffff821115620003bd57620003bc62000510565b5b620003c8826200053f565b9050602081019050919050565b600067ffffffffffffffff821115620003f357620003f262000510565b5b620003fe826200053f565b9050602081019050919050565b600062000418826200041f565b9050919050565b600073ffffffffffffffffffffffffffffffffffffffff82169050919050565b60005b838110156200045f57808201518184015260208101905062000442565b838111156200046f576000848401525b50505050565b600060028204905060018216806200048e57607f821691505b60208210811415620004a557620004a4620004e1565b5b50919050565b620004b6826200053f565b810181811067ffffffffffffffff82111715620004d857620004d762000510565b5b80604052505050565b7f4e487b7100000000000000000000000000000000000000000000000000000000600052602260045260246000fd5b7f4e487b7100000000000000000000000000000000000000000000000000000000600052604160045260246000fd5b6000601f19601f8301169050919050565b6200055b816200040b565b81146200056757600080fd5b50565b610fb5806200057a6000396000f3fe608060405234801561001057600080fd5b506004361061007d5760003560e01c806385f8c2591161005b57806385f8c259146100ee578063ad615dec1461011e578063ba2865781461014e578063d9abf5081461016c5761007d565b8063054d50d41461008257806317d7de7c146100b2578063735de9f7146100d0575b600080fd5b61009c600480360381019061009791906109cc565b61019c565b6040516100a99190610c75565b60405180910390f35b6100ba610255565b6040516100c79190610c13565b60405180910390f35b6100d86102e7565b6040516100e59190610bf8565b60405180910390f35b610108600480360381019061010391906109cc565b61030b565b6040516101159190610c75565b60405180910390f35b610138600480360381019061013391906109cc565b6103c4565b6040516101459190610c75565b60405180910390f35b61015661047d565b6040516101639190610c13565b60405180910390f35b6101866004803603810190610181919061097d565b61050b565b6040516101939190610c75565b60405180910390f35b60008060009054906101000a900473ffffffffffffffffffffffffffffffffffffffff1673ffffffffffffffffffffffffffffffffffffffff1663054d50d48585856040518463ffffffff1660e01b81526004016101fc93929190610c90565b60206040518083038186803b15801561021457600080fd5b505afa158015610228573d6000803e3d6000fd5b505050506040513d601f19601f8201168201806040525081019061024c9190610954565b90509392505050565b60606001805461026490610dd5565b80601f016020809104026020016040519081016040528092919081815260200182805461029090610dd5565b80156102dd5780601f106102b2576101008083540402835291602001916102dd565b820191906000526020600020905b8154815290600101906020018083116102c057829003601f168201915b5050505050905090565b60008054906101000a900473ffffffffffffffffffffffffffffffffffffffff1681565b60008060009054906101000a900473ffffffffffffffffffffffffffffffffffffffff1673ffffffffffffffffffffffffffffffffffffffff166385f8c2598585856040518463ffffffff1660e01b815260040161036b93929190610c90565b60206040518083038186803b15801561038357600080fd5b505afa158015610397573d6000803e3d6000fd5b505050506040513d601f19601f820116820180604052508101906103bb9190610954565b90509392505050565b60008060009054906101000a900473ffffffffffffffffffffffffffffffffffffffff1673ffffffffffffffffffffffffffffffffffffffff1663ad615dec8585856040518463ffffffff1660e01b815260040161042493929190610c90565b60206040518083038186803b15801561043c57600080fd5b505afa158015610450573d6000803e3d6000fd5b505050506040513d601f19601f820116820180604052508101906104749190610954565b90509392505050565b6001805461048a90610dd5565b80601f01602080910402602001604051908101604052809291908181526020018280546104b690610dd5565b80156105035780601f106104d857610100808354040283529160200191610503565b820191906000526020600020905b8154815290600101906020018083116104e657829003601f168201915b505050505081565b60008060008054906101000a900473ffffffffffffffffffffffffffffffffffffffff1673ffffffffffffffffffffffffffffffffffffffff1663c45a01556040518163ffffffff1660e01b815260040160206040518083038186803b15801561057457600080fd5b505afa158015610588573d6000803e3d6000fd5b505050506040513d601f19601f820116820180604052508101906105ac91906108dc565b90506000806105bc8387876106bb565b73ffffffffffffffffffffffffffffffffffffffff16630902f1ac6040518163ffffffff1660e01b815260040160606040518083038186803b15801561060157600080fd5b505afa158015610615573d6000803e3d6000fd5b505050506040513d601f19601f820116820180604052508101906106399190610905565b506dffffffffffffffffffffffffffff1691506dffffffffffffffffffffffffffff1691506000808673ffffffffffffffffffffffffffffffffffffffff168873ffffffffffffffffffffffffffffffffffffffff161061069b57838361069e565b82845b915091506106ad89838361019c565b955050505050509392505050565b60008060006106ca8585610730565b915091508582826040516020016106e2929190610b88565b60405160208183030381529060405280519060200120600260405160200161070c93929190610bb4565b6040516020818303038152906040528051906020012060001c925050509392505050565b6000808273ffffffffffffffffffffffffffffffffffffffff168473ffffffffffffffffffffffffffffffffffffffff1614156107a2576040517f08c379a000000000000000000000000000000000000000000000000000000000815260040161079990610c35565b60405180910390fd5b8273ffffffffffffffffffffffffffffffffffffffff168473ffffffffffffffffffffffffffffffffffffffff16106107dc5782846107df565b83835b8092508193505050600073ffffffffffffffffffffffffffffffffffffffff168273ffffffffffffffffffffffffffffffffffffffff161415610857576040517f08c379a000000000000000000000000000000000000000000000000000000000815260040161084e90610c55565b60405180910390fd5b9250929050565b60008135905061086d81610f23565b92915050565b60008151905061088281610f23565b92915050565b60008151905061089781610f3a565b92915050565b6000813590506108ac81610f51565b92915050565b6000815190506108c181610f51565b92915050565b6000815190506108d681610f68565b92915050565b6000602082840312156108ee57600080fd5b60006108fc84828501610873565b91505092915050565b60008060006060848603121561091a57600080fd5b600061092886828701610888565b935050602061093986828701610888565b925050604061094a868287016108c7565b9150509250925092565b60006020828403121561096657600080fd5b6000610974848285016108b2565b91505092915050565b60008060006060848603121561099257600080fd5b60006109a08682870161089d565b93505060206109b18682870161085e565b92505060406109c28682870161085e565b9150509250925092565b6000806000606084860312156109e157600080fd5b60006109ef8682870161089d565b9350506020610a008682870161089d565b9250506040610a118682870161089d565b9150509250925092565b610a2c610a2782610d0e565b610e07565b82525050565b610a43610a3e82610d20565b610e19565b82525050565b60008154610a5681610dd5565b610a608186610ce7565b94506001821660008114610a7b5760018114610a8c57610abf565b60ff19831686528186019350610abf565b610a9585610cc7565b60005b83811015610ab757815481890152600182019150602081019050610a98565b838801955050505b50505092915050565b610ad181610d7e565b82525050565b6000610ae282610cdc565b610aec8185610cf2565b9350610afc818560208601610da2565b610b0581610e64565b840191505092915050565b6000610b1d602583610cf2565b9150610b2882610e82565b604082019050919050565b6000610b40600183610d03565b9150610b4b82610ed1565b600182019050919050565b6000610b63601e83610cf2565b9150610b6e82610efa565b602082019050919050565b610b8281610d64565b82525050565b6000610b948285610a1b565b601482019150610ba48284610a1b565b6014820191508190509392505050565b6000610bbf82610b33565b9150610bcb8286610a1b565b601482019150610bdb8285610a32565b602082019150610beb8284610a49565b9150819050949350505050565b6000602082019050610c0d6000830184610ac8565b92915050565b60006020820190508181036000830152610c2d8184610ad7565b905092915050565b60006020820190508181036000830152610c4e81610b10565b9050919050565b60006020820190508181036000830152610c6e81610b56565b9050919050565b6000602082019050610c8a6000830184610b79565b92915050565b6000606082019050610ca56000830186610b79565b610cb26020830185610b79565b610cbf6040830184610b79565b949350505050565b60008190508160005260206000209050919050565b600081519050919050565b600081905092915050565b600082825260208201905092915050565b600081905092915050565b6000610d1982610d44565b9050919050565b6000819050919050565b60006dffffffffffffffffffffffffffff82169050919050565b600073ffffffffffffffffffffffffffffffffffffffff82169050919050565b6000819050919050565b600063ffffffff82169050919050565b6000610d8982610d90565b9050919050565b6000610d9b82610d44565b9050919050565b60005b83811015610dc0578082015181840152602081019050610da5565b83811115610dcf576000848401525b50505050565b60006002820490506001821680610ded57607f821691505b60208210811415610e0157610e00610e35565b5b50919050565b6000610e1282610e23565b9050919050565b6000819050919050565b6000610e2e82610e75565b9050919050565b7f4e487b7100000000000000000000000000000000000000000000000000000000600052602260045260246000fd5b6000601f19601f8301169050919050565b60008160601b9050919050565b7f556e697377617056324c6962726172793a204944454e544943414c5f4144445260008201527f4553534553000000000000000000000000000000000000000000000000000000602082015250565b7fff00000000000000000000000000000000000000000000000000000000000000600082015250565b7f556e697377617056324c6962726172793a205a45524f5f414444524553530000600082015250565b610f2c81610d0e565b8114610f3757600080fd5b50565b610f4381610d2a565b8114610f4e57600080fd5b50565b610f5a81610d64565b8114610f6557600080fd5b50565b610f7181610d6e565b8114610f7c57600080fd5b5056fea2646970667358221220f7a923d956836ee48106e9e3e9c5831ff7d322413503c5b36fd6fd1b1ad60d8164736f6c63430008030033",
  "immutableReferences": {},
  "source": "// SPDX-License-Identifier: MIT\npragma solidity >=0.4.22 <0.9.0;\n\nimport \"./uniswap/IUniswapV2Router02.sol\";\nimport \"./uniswap/IUniswapV2Factory.sol\";\nimport \"./uniswap/IUniswapV2Pair.sol\";\n\nimport \"./interface/IExchangeAdapter.sol\";\n\ncontract UniswapExchangeAdapter is IExchangeAdapter {\n\n    IUniswapV2Router02 public uniswapRouter;\n    string public adapterName;\n    bytes private initCodeHash;\n\n    constructor(address _uniswapRouter, string memory _adapterName, bytes memory _initCodeHash) {\n      uniswapRouter = IUniswapV2Router02(_uniswapRouter);\n      adapterName = _adapterName;\n      initCodeHash = _initCodeHash;\n    }\n\n    // returns sorted token addresses, used to handle return values from pairs sorted in this order\n    function sortTokens(address tokenA, address tokenB) internal pure returns (address token0, address token1) {\n        require(tokenA != tokenB, 'UniswapV2Library: IDENTICAL_ADDRESSES');\n        (token0, token1) = tokenA < tokenB ? (tokenA, tokenB) : (tokenB, tokenA);\n        require(token0 != address(0), 'UniswapV2Library: ZERO_ADDRESS');\n    }\n\n    // calculates the CREATE2 address for a pair without making any external calls\n    function pairFor(address factory, address tokenA, address tokenB) internal view returns (address pair) {\n        (address token0, address token1) = sortTokens(tokenA, tokenB);\n        pair = address(uint160(uint256(keccak256(abi.encodePacked(\n                hex'ff',\n                factory,\n                keccak256(abi.encodePacked(token0, token1)),\n                initCodeHash\n                // hex'96e8ac4277198ff8b6f785478aa9a39f403cb768dd02cbee326c3e7da348845f' // init code hash\n            )))));\n    }\n\n\n    function getName() override public view returns (string memory name) {\n      name = adapterName;\n    }\n\n    function quote(uint amountA, uint reserveA, uint reserveB) override public view returns (uint amountB) {\n      amountB = uniswapRouter.quote(amountA, reserveA, reserveB);\n    }\n    function getAmountOut(uint amountIn, uint reserveIn, uint reserveOut) override public view returns (uint amountOut) {\n      amountOut = uniswapRouter.getAmountOut(amountIn, reserveIn, reserveOut);\n    }\n    function getAmountIn(uint amountOut, uint reserveIn, uint reserveOut) override public view returns (uint amountIn) {\n      amountIn = uniswapRouter.getAmountIn(amountOut, reserveIn, reserveOut);\n    }\n\n    function getAmountOutByTokenPair(uint amountIn, address tokenIn, address tokenOut) override public view returns (uint amountOut) {\n      address factory = uniswapRouter.factory();\n      (uint reserve0, uint reserve1, ) = IUniswapV2Pair(pairFor(factory, tokenIn, tokenOut)).getReserves();\n      (uint reseverIn, uint reserveOut) = tokenIn < tokenOut ? (reserve1, reserve0) : (reserve0, reserve1);\n      amountOut = getAmountOut(amountIn, reseverIn, reserveOut);\n    }\n\n}",
  "sourcePath": "/Users/yijiasu/Documents/workspace/KittenSwap/chain/contracts/UniswapExchangeAdapter.sol",
  "compiler": {
    "name": "solc",
    "version": "0.8.3+commit.8d00100c.Emscripten.clang"
  },
  "schemaVersion": "3.4.0",
  "updatedAt": "2021-04-27T19:03:22.846Z",
  "devdoc": {
    "kind": "dev",
    "methods": {},
    "version": 1
  },
  "userdoc": {
    "kind": "user",
    "methods": {},
    "version": 1
  }
}